{
    "_format": "hh-sol-artifact-1",
    "contractName": "NFT",
    "sourceName": "contracts/NFT.sol",
    "abi": [
        {
            "inputs": [],
            "stateMutability": "nonpayable",
            "type": "constructor"
        },
        {
            "anonymous": false,
            "inputs": [
                {
                    "indexed": true,
                    "internalType": "address",
                    "name": "owner",
                    "type": "address"
                },
                {
                    "indexed": true,
                    "internalType": "address",
                    "name": "approved",
                    "type": "address"
                },
                {
                    "indexed": true,
                    "internalType": "uint256",
                    "name": "tokenId",
                    "type": "uint256"
                }
            ],
            "name": "Approval",
            "type": "event"
        },
        {
            "anonymous": false,
            "inputs": [
                {
                    "indexed": true,
                    "internalType": "address",
                    "name": "owner",
                    "type": "address"
                },
                {
                    "indexed": true,
                    "internalType": "address",
                    "name": "operator",
                    "type": "address"
                },
                {
                    "indexed": false,
                    "internalType": "bool",
                    "name": "approved",
                    "type": "bool"
                }
            ],
            "name": "ApprovalForAll",
            "type": "event"
        },
        {
            "anonymous": false,
            "inputs": [
                {
                    "indexed": true,
                    "internalType": "address",
                    "name": "from",
                    "type": "address"
                },
                {
                    "indexed": true,
                    "internalType": "address",
                    "name": "to",
                    "type": "address"
                },
                {
                    "indexed": true,
                    "internalType": "uint256",
                    "name": "tokenId",
                    "type": "uint256"
                }
            ],
            "name": "Transfer",
            "type": "event"
        },
        {
            "inputs": [
                {
                    "internalType": "address",
                    "name": "to",
                    "type": "address"
                },
                {
                    "internalType": "uint256",
                    "name": "tokenId",
                    "type": "uint256"
                }
            ],
            "name": "approve",
            "outputs": [],
            "stateMutability": "nonpayable",
            "type": "function"
        },
        {
            "inputs": [
                {
                    "internalType": "address",
                    "name": "owner",
                    "type": "address"
                }
            ],
            "name": "balanceOf",
            "outputs": [
                {
                    "internalType": "uint256",
                    "name": "",
                    "type": "uint256"
                }
            ],
            "stateMutability": "view",
            "type": "function"
        },
        {
            "inputs": [
                {
                    "internalType": "uint256",
                    "name": "tokenId",
                    "type": "uint256"
                }
            ],
            "name": "getApproved",
            "outputs": [
                {
                    "internalType": "address",
                    "name": "",
                    "type": "address"
                }
            ],
            "stateMutability": "view",
            "type": "function"
        },
        {
            "inputs": [
                {
                    "internalType": "address",
                    "name": "owner",
                    "type": "address"
                },
                {
                    "internalType": "address",
                    "name": "operator",
                    "type": "address"
                }
            ],
            "name": "isApprovedForAll",
            "outputs": [
                {
                    "internalType": "bool",
                    "name": "",
                    "type": "bool"
                }
            ],
            "stateMutability": "view",
            "type": "function"
        },
        {
            "inputs": [
                {
                    "internalType": "string",
                    "name": "tokenURI",
                    "type": "string"
                }
            ],
            "name": "mint",
            "outputs": [
                {
                    "internalType": "uint256",
                    "name": "",
                    "type": "uint256"
                }
            ],
            "stateMutability": "nonpayable",
            "type": "function"
        },
        {
            "inputs": [],
            "name": "name",
            "outputs": [
                {
                    "internalType": "string",
                    "name": "",
                    "type": "string"
                }
            ],
            "stateMutability": "view",
            "type": "function"
        },
        {
            "inputs": [
                {
                    "internalType": "uint256",
                    "name": "tokenId",
                    "type": "uint256"
                }
            ],
            "name": "ownerOf",
            "outputs": [
                {
                    "internalType": "address",
                    "name": "",
                    "type": "address"
                }
            ],
            "stateMutability": "view",
            "type": "function"
        },
        {
            "inputs": [
                {
                    "internalType": "address",
                    "name": "from",
                    "type": "address"
                },
                {
                    "internalType": "address",
                    "name": "to",
                    "type": "address"
                },
                {
                    "internalType": "uint256",
                    "name": "tokenId",
                    "type": "uint256"
                }
            ],
            "name": "safeTransferFrom",
            "outputs": [],
            "stateMutability": "nonpayable",
            "type": "function"
        },
        {
            "inputs": [
                {
                    "internalType": "address",
                    "name": "from",
                    "type": "address"
                },
                {
                    "internalType": "address",
                    "name": "to",
                    "type": "address"
                },
                {
                    "internalType": "uint256",
                    "name": "tokenId",
                    "type": "uint256"
                },
                {
                    "internalType": "bytes",
                    "name": "_data",
                    "type": "bytes"
                }
            ],
            "name": "safeTransferFrom",
            "outputs": [],
            "stateMutability": "nonpayable",
            "type": "function"
        },
        {
            "inputs": [
                {
                    "internalType": "address",
                    "name": "operator",
                    "type": "address"
                },
                {
                    "internalType": "bool",
                    "name": "approved",
                    "type": "bool"
                }
            ],
            "name": "setApprovalForAll",
            "outputs": [],
            "stateMutability": "nonpayable",
            "type": "function"
        },
        {
            "inputs": [
                {
                    "internalType": "bytes4",
                    "name": "interfaceId",
                    "type": "bytes4"
                }
            ],
            "name": "supportsInterface",
            "outputs": [
                {
                    "internalType": "bool",
                    "name": "",
                    "type": "bool"
                }
            ],
            "stateMutability": "view",
            "type": "function"
        },
        {
            "inputs": [],
            "name": "symbol",
            "outputs": [
                {
                    "internalType": "string",
                    "name": "",
                    "type": "string"
                }
            ],
            "stateMutability": "view",
            "type": "function"
        },
        {
            "inputs": [
                {
                    "internalType": "uint256",
                    "name": "index",
                    "type": "uint256"
                }
            ],
            "name": "tokenByIndex",
            "outputs": [
                {
                    "internalType": "uint256",
                    "name": "",
                    "type": "uint256"
                }
            ],
            "stateMutability": "view",
            "type": "function"
        },
        {
            "inputs": [
                {
                    "internalType": "address",
                    "name": "owner",
                    "type": "address"
                },
                {
                    "internalType": "uint256",
                    "name": "index",
                    "type": "uint256"
                }
            ],
            "name": "tokenOfOwnerByIndex",
            "outputs": [
                {
                    "internalType": "uint256",
                    "name": "",
                    "type": "uint256"
                }
            ],
            "stateMutability": "view",
            "type": "function"
        },
        {
            "inputs": [
                {
                    "internalType": "uint256",
                    "name": "tokenId",
                    "type": "uint256"
                }
            ],
            "name": "tokenURI",
            "outputs": [
                {
                    "internalType": "string",
                    "name": "",
                    "type": "string"
                }
            ],
            "stateMutability": "view",
            "type": "function"
        },
        {
            "inputs": [],
            "name": "totalSupply",
            "outputs": [
                {
                    "internalType": "uint256",
                    "name": "",
                    "type": "uint256"
                }
            ],
            "stateMutability": "view",
            "type": "function"
        },
        {
            "inputs": [
                {
                    "internalType": "address",
                    "name": "from",
                    "type": "address"
                },
                {
                    "internalType": "address",
                    "name": "to",
                    "type": "address"
                },
                {
                    "internalType": "uint256",
                    "name": "tokenId",
                    "type": "uint256"
                }
            ],
            "name": "transferFrom",
            "outputs": [],
            "stateMutability": "nonpayable",
            "type": "function"
        }
    ],
    "bytecode": "0x60806040523480156200001157600080fd5b506040518060400160405280600a81526020017f4175726f7261204e4654000000000000000000000000000000000000000000008152506040518060400160405280600481526020017f414e465400000000000000000000000000000000000000000000000000000000815250816000908051906020019062000096929190620000b8565b508060019080519060200190620000af929190620000b8565b505050620001cd565b828054620000c69062000168565b90600052602060002090601f016020900481019282620000ea576000855562000136565b82601f106200010557805160ff191683800117855562000136565b8280016001018555821562000136579182015b828111156200013557825182559160200191906001019062000118565b5b50905062000145919062000149565b5090565b5b80821115620001645760008160009055506001016200014a565b5090565b600060028204905060018216806200018157607f821691505b602082108114156200019857620001976200019e565b5b50919050565b7f4e487b7100000000000000000000000000000000000000000000000000000000600052602260045260246000fd5b6133a080620001dd6000396000f3fe608060405234801561001057600080fd5b506004361061010b5760003560e01c80634f6ccce7116100a2578063a22cb46511610071578063a22cb465146102de578063b88d4fde146102fa578063c87b56dd14610316578063d85d3d2714610346578063e985e9c5146103765761010b565b80634f6ccce7146102305780636352211e1461026057806370a082311461029057806395d89b41146102c05761010b565b806318160ddd116100de57806318160ddd146101aa57806323b872dd146101c85780632f745c59146101e457806342842e0e146102145761010b565b806301ffc9a71461011057806306fdde0314610140578063081812fc1461015e578063095ea7b31461018e575b600080fd5b61012a600480360381019061012591906122e8565b6103a6565b6040516101379190612775565b60405180910390f35b6101486103b8565b6040516101559190612790565b60405180910390f35b6101786004803603810190610173919061237b565b61044a565b604051610185919061270e565b60405180910390f35b6101a860048036038101906101a391906122ac565b6104cf565b005b6101b26105e7565b6040516101bf91906129f2565b60405180910390f35b6101e260048036038101906101dd91906121a6565b6105f4565b005b6101fe60048036038101906101f991906122ac565b610654565b60405161020b91906129f2565b60405180910390f35b61022e600480360381019061022991906121a6565b6106f9565b005b61024a6004803603810190610245919061237b565b610719565b60405161025791906129f2565b60405180910390f35b61027a6004803603810190610275919061237b565b6107b0565b604051610287919061270e565b60405180910390f35b6102aa60048036038101906102a59190612141565b610862565b6040516102b791906129f2565b60405180910390f35b6102c861091a565b6040516102d59190612790565b60405180910390f35b6102f860048036038101906102f39190612270565b6109ac565b005b610314600480360381019061030f91906121f5565b6109c2565b005b610330600480360381019061032b919061237b565b610a24565b60405161033d9190612790565b60405180910390f35b610360600480360381019061035b919061233a565b610a36565b60405161036d91906129f2565b60405180910390f35b610390600480360381019061038b919061216a565b610a6d565b60405161039d9190612775565b60405180910390f35b60006103b182610b01565b9050919050565b6060600080546103c790612c48565b80601f01602080910402602001604051908101604052809291908181526020018280546103f390612c48565b80156104405780601f1061041557610100808354040283529160200191610440565b820191906000526020600020905b81548152906001019060200180831161042357829003601f168201915b5050505050905090565b600061045582610b7b565b610494576040517f08c379a000000000000000000000000000000000000000000000000000000000815260040161048b90612932565b60405180910390fd5b6004600083815260200190815260200160002060009054906101000a900473ffffffffffffffffffffffffffffffffffffffff169050919050565b60006104da826107b0565b90508073ffffffffffffffffffffffffffffffffffffffff168373ffffffffffffffffffffffffffffffffffffffff16141561054b576040517f08c379a000000000000000000000000000000000000000000000000000000000815260040161054290612992565b60405180910390fd5b8073ffffffffffffffffffffffffffffffffffffffff1661056a610be7565b73ffffffffffffffffffffffffffffffffffffffff161480610599575061059881610593610be7565b610a6d565b5b6105d8576040517f08c379a00000000000000000000000000000000000000000000000000000000081526004016105cf90612872565b60405180910390fd5b6105e28383610bef565b505050565b6000600980549050905090565b6106056105ff610be7565b82610ca8565b610644576040517f08c379a000000000000000000000000000000000000000000000000000000000815260040161063b906129b2565b60405180910390fd5b61064f838383610d86565b505050565b600061065f83610862565b82106106a0576040517f08c379a0000000000000000000000000000000000000000000000000000000008152600401610697906127b2565b60405180910390fd5b600760008473ffffffffffffffffffffffffffffffffffffffff1673ffffffffffffffffffffffffffffffffffffffff168152602001908152602001600020600083815260200190815260200160002054905092915050565b610714838383604051806020016040528060008152506109c2565b505050565b60006107236105e7565b8210610764576040517f08c379a000000000000000000000000000000000000000000000000000000000815260040161075b906129d2565b60405180910390fd5b6009828154811061079e577f4e487b7100000000000000000000000000000000000000000000000000000000600052603260045260246000fd5b90600052602060002001549050919050565b6000806002600084815260200190815260200160002060009054906101000a900473ffffffffffffffffffffffffffffffffffffffff169050600073ffffffffffffffffffffffffffffffffffffffff168173ffffffffffffffffffffffffffffffffffffffff161415610859576040517f08c379a0000000000000000000000000000000000000000000000000000000008152600401610850906128b2565b60405180910390fd5b80915050919050565b60008073ffffffffffffffffffffffffffffffffffffffff168273ffffffffffffffffffffffffffffffffffffffff1614156108d3576040517f08c379a00000000000000000000000000000000000000000000000000000000081526004016108ca90612892565b60405180910390fd5b600360008373ffffffffffffffffffffffffffffffffffffffff1673ffffffffffffffffffffffffffffffffffffffff168152602001908152602001600020549050919050565b60606001805461092990612c48565b80601f016020809104026020016040519081016040528092919081815260200182805461095590612c48565b80156109a25780601f10610977576101008083540402835291602001916109a2565b820191906000526020600020905b81548152906001019060200180831161098557829003601f168201915b5050505050905090565b6109be6109b7610be7565b8383610fe2565b5050565b6109d36109cd610be7565b83610ca8565b610a12576040517f08c379a0000000000000000000000000000000000000000000000000000000008152600401610a09906129b2565b60405180910390fd5b610a1e8484848461114f565b50505050565b6060610a2f826111ab565b9050919050565b6000610a42600b6112fd565b6000610a4e600b611313565b9050610a5a3382611321565b610a6481846114ef565b80915050919050565b6000600560008473ffffffffffffffffffffffffffffffffffffffff1673ffffffffffffffffffffffffffffffffffffffff16815260200190815260200160002060008373ffffffffffffffffffffffffffffffffffffffff1673ffffffffffffffffffffffffffffffffffffffff16815260200190815260200160002060009054906101000a900460ff16905092915050565b60007f780e9d63000000000000000000000000000000000000000000000000000000007bffffffffffffffffffffffffffffffffffffffffffffffffffffffff1916827bffffffffffffffffffffffffffffffffffffffffffffffffffffffff19161480610b745750610b7382611563565b5b9050919050565b60008073ffffffffffffffffffffffffffffffffffffffff166002600084815260200190815260200160002060009054906101000a900473ffffffffffffffffffffffffffffffffffffffff1673ffffffffffffffffffffffffffffffffffffffff1614159050919050565b600033905090565b816004600083815260200190815260200160002060006101000a81548173ffffffffffffffffffffffffffffffffffffffff021916908373ffffffffffffffffffffffffffffffffffffffff160217905550808273ffffffffffffffffffffffffffffffffffffffff16610c62836107b0565b73ffffffffffffffffffffffffffffffffffffffff167f8c5be1e5ebec7d5bd14f71427d1e84f3dd0314c0f7b2291e5b200ac8c7c3b92560405160405180910390a45050565b6000610cb382610b7b565b610cf2576040517f08c379a0000000000000000000000000000000000000000000000000000000008152600401610ce990612852565b60405180910390fd5b6000610cfd836107b0565b90508073ffffffffffffffffffffffffffffffffffffffff168473ffffffffffffffffffffffffffffffffffffffff161480610d6c57508373ffffffffffffffffffffffffffffffffffffffff16610d548461044a565b73ffffffffffffffffffffffffffffffffffffffff16145b80610d7d5750610d7c8185610a6d565b5b91505092915050565b8273ffffffffffffffffffffffffffffffffffffffff16610da6826107b0565b73ffffffffffffffffffffffffffffffffffffffff1614610dfc576040517f08c379a0000000000000000000000000000000000000000000000000000000008152600401610df390612952565b60405180910390fd5b600073ffffffffffffffffffffffffffffffffffffffff168273ffffffffffffffffffffffffffffffffffffffff161415610e6c576040517f08c379a0000000000000000000000000000000000000000000000000000000008152600401610e6390612812565b60405180910390fd5b610e77838383611645565b610e82600082610bef565b6001600360008573ffffffffffffffffffffffffffffffffffffffff1673ffffffffffffffffffffffffffffffffffffffff1681526020019081526020016000206000828254610ed29190612b5e565b925050819055506001600360008473ffffffffffffffffffffffffffffffffffffffff1673ffffffffffffffffffffffffffffffffffffffff1681526020019081526020016000206000828254610f299190612ad7565b92505081905550816002600083815260200190815260200160002060006101000a81548173ffffffffffffffffffffffffffffffffffffffff021916908373ffffffffffffffffffffffffffffffffffffffff160217905550808273ffffffffffffffffffffffffffffffffffffffff168473ffffffffffffffffffffffffffffffffffffffff167fddf252ad1be2c89b69c2b068fc378daa952ba7f163c4a11628f55a4df523b3ef60405160405180910390a4505050565b8173ffffffffffffffffffffffffffffffffffffffff168373ffffffffffffffffffffffffffffffffffffffff161415611051576040517f08c379a000000000000000000000000000000000000000000000000000000000815260040161104890612832565b60405180910390fd5b80600560008573ffffffffffffffffffffffffffffffffffffffff1673ffffffffffffffffffffffffffffffffffffffff16815260200190815260200160002060008473ffffffffffffffffffffffffffffffffffffffff1673ffffffffffffffffffffffffffffffffffffffff16815260200190815260200160002060006101000a81548160ff0219169083151502179055508173ffffffffffffffffffffffffffffffffffffffff168373ffffffffffffffffffffffffffffffffffffffff167f17307eab39ab6107e8899845ad3d59bd9653f200f220920489ca2b5937696c31836040516111429190612775565b60405180910390a3505050565b61115a848484610d86565b61116684848484611655565b6111a5576040517f08c379a000000000000000000000000000000000000000000000000000000000815260040161119c906127d2565b60405180910390fd5b50505050565b60606111b682610b7b565b6111f5576040517f08c379a00000000000000000000000000000000000000000000000000000000081526004016111ec90612912565b60405180910390fd5b600060066000848152602001908152602001600020805461121590612c48565b80601f016020809104026020016040519081016040528092919081815260200182805461124190612c48565b801561128e5780601f106112635761010080835404028352916020019161128e565b820191906000526020600020905b81548152906001019060200180831161127157829003601f168201915b50505050509050600061129f6117ec565b90506000815114156112b55781925050506112f8565b6000825111156112ea5780826040516020016112d29291906126ea565b604051602081830303815290604052925050506112f8565b6112f384611803565b925050505b919050565b6001816000016000828254019250508190555050565b600081600001549050919050565b600073ffffffffffffffffffffffffffffffffffffffff168273ffffffffffffffffffffffffffffffffffffffff161415611391576040517f08c379a0000000000000000000000000000000000000000000000000000000008152600401611388906128f2565b60405180910390fd5b61139a81610b7b565b156113da576040517f08c379a00000000000000000000000000000000000000000000000000000000081526004016113d1906127f2565b60405180910390fd5b6113e660008383611645565b6001600360008473ffffffffffffffffffffffffffffffffffffffff1673ffffffffffffffffffffffffffffffffffffffff16815260200190815260200160002060008282546114369190612ad7565b92505081905550816002600083815260200190815260200160002060006101000a81548173ffffffffffffffffffffffffffffffffffffffff021916908373ffffffffffffffffffffffffffffffffffffffff160217905550808273ffffffffffffffffffffffffffffffffffffffff16600073ffffffffffffffffffffffffffffffffffffffff167fddf252ad1be2c89b69c2b068fc378daa952ba7f163c4a11628f55a4df523b3ef60405160405180910390a45050565b6114f882610b7b565b611537576040517f08c379a000000000000000000000000000000000000000000000000000000000815260040161152e906128d2565b60405180910390fd5b8060066000848152602001908152602001600020908051906020019061155e929190611f65565b505050565b60007f80ac58cd000000000000000000000000000000000000000000000000000000007bffffffffffffffffffffffffffffffffffffffffffffffffffffffff1916827bffffffffffffffffffffffffffffffffffffffffffffffffffffffff1916148061162e57507f5b5e139f000000000000000000000000000000000000000000000000000000007bffffffffffffffffffffffffffffffffffffffffffffffffffffffff1916827bffffffffffffffffffffffffffffffffffffffffffffffffffffffff1916145b8061163e575061163d826118aa565b5b9050919050565b611650838383611914565b505050565b60006116768473ffffffffffffffffffffffffffffffffffffffff16611a28565b156117df578373ffffffffffffffffffffffffffffffffffffffff1663150b7a0261169f610be7565b8786866040518563ffffffff1660e01b81526004016116c19493929190612729565b602060405180830381600087803b1580156116db57600080fd5b505af192505050801561170c57506040513d601f19601f820116820180604052508101906117099190612311565b60015b61178f573d806000811461173c576040519150601f19603f3d011682016040523d82523d6000602084013e611741565b606091505b50600081511415611787576040517f08c379a000000000000000000000000000000000000000000000000000000000815260040161177e906127d2565b60405180910390fd5b805181602001fd5b63150b7a0260e01b7bffffffffffffffffffffffffffffffffffffffffffffffffffffffff1916817bffffffffffffffffffffffffffffffffffffffffffffffffffffffff1916149150506117e4565b600190505b949350505050565b606060405180602001604052806000815250905090565b606061180e82610b7b565b61184d576040517f08c379a000000000000000000000000000000000000000000000000000000000815260040161184490612972565b60405180910390fd5b60006118576117ec565b9050600081511161187757604051806020016040528060008152506118a2565b8061188184611a3b565b6040516020016118929291906126ea565b6040516020818303038152906040525b915050919050565b60007f01ffc9a7000000000000000000000000000000000000000000000000000000007bffffffffffffffffffffffffffffffffffffffffffffffffffffffff1916827bffffffffffffffffffffffffffffffffffffffffffffffffffffffff1916149050919050565b61191f838383611be8565b600073ffffffffffffffffffffffffffffffffffffffff168373ffffffffffffffffffffffffffffffffffffffff1614156119625761195d81611bed565b6119a1565b8173ffffffffffffffffffffffffffffffffffffffff168373ffffffffffffffffffffffffffffffffffffffff16146119a05761199f8382611c36565b5b5b600073ffffffffffffffffffffffffffffffffffffffff168273ffffffffffffffffffffffffffffffffffffffff1614156119e4576119df81611da3565b611a23565b8273ffffffffffffffffffffffffffffffffffffffff168273ffffffffffffffffffffffffffffffffffffffff1614611a2257611a218282611ee6565b5b5b505050565b600080823b905060008111915050919050565b60606000821415611a83576040518060400160405280600181526020017f30000000000000000000000000000000000000000000000000000000000000008152509050611be3565b600082905060005b60008214611ab5578080611a9e90612cab565b915050600a82611aae9190612b2d565b9150611a8b565b60008167ffffffffffffffff811115611af7577f4e487b7100000000000000000000000000000000000000000000000000000000600052604160045260246000fd5b6040519080825280601f01601f191660200182016040528015611b295781602001600182028036833780820191505090505b5090505b60008514611bdc57600182611b429190612b5e565b9150600a85611b519190612cf4565b6030611b5d9190612ad7565b60f81b818381518110611b99577f4e487b7100000000000000000000000000000000000000000000000000000000600052603260045260246000fd5b60200101907effffffffffffffffffffffffffffffffffffffffffffffffffffffffffffff1916908160001a905350600a85611bd59190612b2d565b9450611b2d565b8093505050505b919050565b505050565b600980549050600a600083815260200190815260200160002081905550600981908060018154018082558091505060019003906000526020600020016000909190919091505550565b60006001611c4384610862565b611c4d9190612b5e565b9050600060086000848152602001908152602001600020549050818114611d32576000600760008673ffffffffffffffffffffffffffffffffffffffff1673ffffffffffffffffffffffffffffffffffffffff168152602001908152602001600020600084815260200190815260200160002054905080600760008773ffffffffffffffffffffffffffffffffffffffff1673ffffffffffffffffffffffffffffffffffffffff168152602001908152602001600020600084815260200190815260200160002081905550816008600083815260200190815260200160002081905550505b6008600084815260200190815260200160002060009055600760008573ffffffffffffffffffffffffffffffffffffffff1673ffffffffffffffffffffffffffffffffffffffff16815260200190815260200160002060008381526020019081526020016000206000905550505050565b60006001600980549050611db79190612b5e565b90506000600a6000848152602001908152602001600020549050600060098381548110611e0d577f4e487b7100000000000000000000000000000000000000000000000000000000600052603260045260246000fd5b906000526020600020015490508060098381548110611e55577f4e487b7100000000000000000000000000000000000000000000000000000000600052603260045260246000fd5b906000526020600020018190555081600a600083815260200190815260200160002081905550600a6000858152602001908152602001600020600090556009805480611eca577f4e487b7100000000000000000000000000000000000000000000000000000000600052603160045260246000fd5b6001900381819060005260206000200160009055905550505050565b6000611ef183610862565b905081600760008573ffffffffffffffffffffffffffffffffffffffff1673ffffffffffffffffffffffffffffffffffffffff168152602001908152602001600020600083815260200190815260200160002081905550806008600084815260200190815260200160002081905550505050565b828054611f7190612c48565b90600052602060002090601f016020900481019282611f935760008555611fda565b82601f10611fac57805160ff1916838001178555611fda565b82800160010185558215611fda579182015b82811115611fd9578251825591602001919060010190611fbe565b5b509050611fe79190611feb565b5090565b5b80821115612004576000816000905550600101611fec565b5090565b600061201b61201684612a32565b612a0d565b90508281526020810184848401111561203357600080fd5b61203e848285612c06565b509392505050565b600061205961205484612a63565b612a0d565b90508281526020810184848401111561207157600080fd5b61207c848285612c06565b509392505050565b6000813590506120938161330e565b92915050565b6000813590506120a881613325565b92915050565b6000813590506120bd8161333c565b92915050565b6000815190506120d28161333c565b92915050565b600082601f8301126120e957600080fd5b81356120f9848260208601612008565b91505092915050565b600082601f83011261211357600080fd5b8135612123848260208601612046565b91505092915050565b60008135905061213b81613353565b92915050565b60006020828403121561215357600080fd5b600061216184828501612084565b91505092915050565b6000806040838503121561217d57600080fd5b600061218b85828601612084565b925050602061219c85828601612084565b9150509250929050565b6000806000606084860312156121bb57600080fd5b60006121c986828701612084565b93505060206121da86828701612084565b92505060406121eb8682870161212c565b9150509250925092565b6000806000806080858703121561220b57600080fd5b600061221987828801612084565b945050602061222a87828801612084565b935050604061223b8782880161212c565b925050606085013567ffffffffffffffff81111561225857600080fd5b612264878288016120d8565b91505092959194509250565b6000806040838503121561228357600080fd5b600061229185828601612084565b92505060206122a285828601612099565b9150509250929050565b600080604083850312156122bf57600080fd5b60006122cd85828601612084565b92505060206122de8582860161212c565b9150509250929050565b6000602082840312156122fa57600080fd5b6000612308848285016120ae565b91505092915050565b60006020828403121561232357600080fd5b6000612331848285016120c3565b91505092915050565b60006020828403121561234c57600080fd5b600082013567ffffffffffffffff81111561236657600080fd5b61237284828501612102565b91505092915050565b60006020828403121561238d57600080fd5b600061239b8482850161212c565b91505092915050565b6123ad81612b92565b82525050565b6123bc81612ba4565b82525050565b60006123cd82612a94565b6123d78185612aaa565b93506123e7818560208601612c15565b6123f081612de1565b840191505092915050565b600061240682612a9f565b6124108185612abb565b9350612420818560208601612c15565b61242981612de1565b840191505092915050565b600061243f82612a9f565b6124498185612acc565b9350612459818560208601612c15565b80840191505092915050565b6000612472602b83612abb565b915061247d82612df2565b604082019050919050565b6000612495603283612abb565b91506124a082612e41565b604082019050919050565b60006124b8601c83612abb565b91506124c382612e90565b602082019050919050565b60006124db602483612abb565b91506124e682612eb9565b604082019050919050565b60006124fe601983612abb565b915061250982612f08565b602082019050919050565b6000612521602c83612abb565b915061252c82612f31565b604082019050919050565b6000612544603883612abb565b915061254f82612f80565b604082019050919050565b6000612567602a83612abb565b915061257282612fcf565b604082019050919050565b600061258a602983612abb565b91506125958261301e565b604082019050919050565b60006125ad602e83612abb565b91506125b88261306d565b604082019050919050565b60006125d0602083612abb565b91506125db826130bc565b602082019050919050565b60006125f3603183612abb565b91506125fe826130e5565b604082019050919050565b6000612616602c83612abb565b915061262182613134565b604082019050919050565b6000612639602983612abb565b915061264482613183565b604082019050919050565b600061265c602f83612abb565b9150612667826131d2565b604082019050919050565b600061267f602183612abb565b915061268a82613221565b604082019050919050565b60006126a2603183612abb565b91506126ad82613270565b604082019050919050565b60006126c5602c83612abb565b91506126d0826132bf565b604082019050919050565b6126e481612bfc565b82525050565b60006126f68285612434565b91506127028284612434565b91508190509392505050565b600060208201905061272360008301846123a4565b92915050565b600060808201905061273e60008301876123a4565b61274b60208301866123a4565b61275860408301856126db565b818103606083015261276a81846123c2565b905095945050505050565b600060208201905061278a60008301846123b3565b92915050565b600060208201905081810360008301526127aa81846123fb565b905092915050565b600060208201905081810360008301526127cb81612465565b9050919050565b600060208201905081810360008301526127eb81612488565b9050919050565b6000602082019050818103600083015261280b816124ab565b9050919050565b6000602082019050818103600083015261282b816124ce565b9050919050565b6000602082019050818103600083015261284b816124f1565b9050919050565b6000602082019050818103600083015261286b81612514565b9050919050565b6000602082019050818103600083015261288b81612537565b9050919050565b600060208201905081810360008301526128ab8161255a565b9050919050565b600060208201905081810360008301526128cb8161257d565b9050919050565b600060208201905081810360008301526128eb816125a0565b9050919050565b6000602082019050818103600083015261290b816125c3565b9050919050565b6000602082019050818103600083015261292b816125e6565b9050919050565b6000602082019050818103600083015261294b81612609565b9050919050565b6000602082019050818103600083015261296b8161262c565b9050919050565b6000602082019050818103600083015261298b8161264f565b9050919050565b600060208201905081810360008301526129ab81612672565b9050919050565b600060208201905081810360008301526129cb81612695565b9050919050565b600060208201905081810360008301526129eb816126b8565b9050919050565b6000602082019050612a0760008301846126db565b92915050565b6000612a17612a28565b9050612a238282612c7a565b919050565b6000604051905090565b600067ffffffffffffffff821115612a4d57612a4c612db2565b5b612a5682612de1565b9050602081019050919050565b600067ffffffffffffffff821115612a7e57612a7d612db2565b5b612a8782612de1565b9050602081019050919050565b600081519050919050565b600081519050919050565b600082825260208201905092915050565b600082825260208201905092915050565b600081905092915050565b6000612ae282612bfc565b9150612aed83612bfc565b9250827fffffffffffffffffffffffffffffffffffffffffffffffffffffffffffffffff03821115612b2257612b21612d25565b5b828201905092915050565b6000612b3882612bfc565b9150612b4383612bfc565b925082612b5357612b52612d54565b5b828204905092915050565b6000612b6982612bfc565b9150612b7483612bfc565b925082821015612b8757612b86612d25565b5b828203905092915050565b6000612b9d82612bdc565b9050919050565b60008115159050919050565b60007fffffffff0000000000000000000000000000000000000000000000000000000082169050919050565b600073ffffffffffffffffffffffffffffffffffffffff82169050919050565b6000819050919050565b82818337600083830152505050565b60005b83811015612c33578082015181840152602081019050612c18565b83811115612c42576000848401525b50505050565b60006002820490506001821680612c6057607f821691505b60208210811415612c7457612c73612d83565b5b50919050565b612c8382612de1565b810181811067ffffffffffffffff82111715612ca257612ca1612db2565b5b80604052505050565b6000612cb682612bfc565b91507fffffffffffffffffffffffffffffffffffffffffffffffffffffffffffffffff821415612ce957612ce8612d25565b5b600182019050919050565b6000612cff82612bfc565b9150612d0a83612bfc565b925082612d1a57612d19612d54565b5b828206905092915050565b7f4e487b7100000000000000000000000000000000000000000000000000000000600052601160045260246000fd5b7f4e487b7100000000000000000000000000000000000000000000000000000000600052601260045260246000fd5b7f4e487b7100000000000000000000000000000000000000000000000000000000600052602260045260246000fd5b7f4e487b7100000000000000000000000000000000000000000000000000000000600052604160045260246000fd5b6000601f19601f8301169050919050565b7f455243373231456e756d657261626c653a206f776e657220696e646578206f7560008201527f74206f6620626f756e6473000000000000000000000000000000000000000000602082015250565b7f4552433732313a207472616e7366657220746f206e6f6e20455243373231526560008201527f63656976657220696d706c656d656e7465720000000000000000000000000000602082015250565b7f4552433732313a20746f6b656e20616c7265616479206d696e74656400000000600082015250565b7f4552433732313a207472616e7366657220746f20746865207a65726f2061646460008201527f7265737300000000000000000000000000000000000000000000000000000000602082015250565b7f4552433732313a20617070726f766520746f2063616c6c657200000000000000600082015250565b7f4552433732313a206f70657261746f7220717565727920666f72206e6f6e657860008201527f697374656e7420746f6b656e0000000000000000000000000000000000000000602082015250565b7f4552433732313a20617070726f76652063616c6c6572206973206e6f74206f7760008201527f6e6572206e6f7220617070726f76656420666f7220616c6c0000000000000000602082015250565b7f4552433732313a2062616c616e636520717565727920666f7220746865207a6560008201527f726f206164647265737300000000000000000000000000000000000000000000602082015250565b7f4552433732313a206f776e657220717565727920666f72206e6f6e657869737460008201527f656e7420746f6b656e0000000000000000000000000000000000000000000000602082015250565b7f45524337323155524953746f726167653a2055524920736574206f66206e6f6e60008201527f6578697374656e7420746f6b656e000000000000000000000000000000000000602082015250565b7f4552433732313a206d696e7420746f20746865207a65726f2061646472657373600082015250565b7f45524337323155524953746f726167653a2055524920717565727920666f722060008201527f6e6f6e6578697374656e7420746f6b656e000000000000000000000000000000602082015250565b7f4552433732313a20617070726f76656420717565727920666f72206e6f6e657860008201527f697374656e7420746f6b656e0000000000000000000000000000000000000000602082015250565b7f4552433732313a207472616e73666572206f6620746f6b656e2074686174206960008201527f73206e6f74206f776e0000000000000000000000000000000000000000000000602082015250565b7f4552433732314d657461646174613a2055524920717565727920666f72206e6f60008201527f6e6578697374656e7420746f6b656e0000000000000000000000000000000000602082015250565b7f4552433732313a20617070726f76616c20746f2063757272656e74206f776e6560008201527f7200000000000000000000000000000000000000000000000000000000000000602082015250565b7f4552433732313a207472616e736665722063616c6c6572206973206e6f74206f60008201527f776e6572206e6f7220617070726f766564000000000000000000000000000000602082015250565b7f455243373231456e756d657261626c653a20676c6f62616c20696e646578206f60008201527f7574206f6620626f756e64730000000000000000000000000000000000000000602082015250565b61331781612b92565b811461332257600080fd5b50565b61332e81612ba4565b811461333957600080fd5b50565b61334581612bb0565b811461335057600080fd5b50565b61335c81612bfc565b811461336757600080fd5b5056fea264697066735822122058448fc9f620615b51a7e34bb3d899ad00584b4710e513b409a3cd26aa0b816664736f6c63430008040033",
    "linkReferences": {},
    "deployedLinkReferences": {}
}